{
  "_format": "hh-sol-artifact-1",
  "contractName": "BigDataSharing",
  "sourceName": "contracts/BigDataSharing.sol",
  "abi": [
    {
      "inputs": [
        {
          "internalType": "uint256",
          "name": "_expiration_date",
          "type": "uint256"
        },
        {
          "internalType": "string",
          "name": "_name",
          "type": "string"
        },
        {
          "internalType": "string",
          "name": "_content",
          "type": "string"
        },
        {
          "internalType": "string",
          "name": "_password",
          "type": "string"
        }
      ],
      "name": "addData",
      "outputs": [],
      "stateMutability": "nonpayable",
      "type": "function"
    },
    {
      "inputs": [
        {
          "internalType": "uint256",
          "name": "_data_id",
          "type": "uint256"
        },
        {
          "internalType": "string",
          "name": "_password",
          "type": "string"
        }
      ],
      "name": "getDataById",
      "outputs": [
        {
          "components": [
            {
              "components": [
                {
                  "internalType": "address",
                  "name": "owner_address",
                  "type": "address"
                },
                {
                  "internalType": "uint256",
                  "name": "id",
                  "type": "uint256"
                },
                {
                  "internalType": "uint256",
                  "name": "created_at",
                  "type": "uint256"
                },
                {
                  "internalType": "uint256",
                  "name": "expiration_date",
                  "type": "uint256"
                },
                {
                  "internalType": "string",
                  "name": "name",
                  "type": "string"
                }
              ],
              "internalType": "struct BigDataSharingStructs.Data",
              "name": "data",
              "type": "tuple"
            },
            {
              "internalType": "string",
              "name": "content",
              "type": "string"
            }
          ],
          "internalType": "struct BigDataSharingStructs.DataWithContent",
          "name": "",
          "type": "tuple"
        }
      ],
      "stateMutability": "view",
      "type": "function"
    },
    {
      "inputs": [],
      "name": "getOwnerDatas",
      "outputs": [
        {
          "components": [
            {
              "components": [
                {
                  "internalType": "address",
                  "name": "owner_address",
                  "type": "address"
                },
                {
                  "internalType": "uint256",
                  "name": "id",
                  "type": "uint256"
                },
                {
                  "internalType": "uint256",
                  "name": "created_at",
                  "type": "uint256"
                },
                {
                  "internalType": "uint256",
                  "name": "expiration_date",
                  "type": "uint256"
                },
                {
                  "internalType": "string",
                  "name": "name",
                  "type": "string"
                }
              ],
              "internalType": "struct BigDataSharingStructs.Data",
              "name": "data",
              "type": "tuple"
            },
            {
              "internalType": "string",
              "name": "password",
              "type": "string"
            }
          ],
          "internalType": "struct BigDataSharingStructs.DataWithPassword[]",
          "name": "",
          "type": "tuple[]"
        }
      ],
      "stateMutability": "view",
      "type": "function"
    }
  ],
  "bytecode": "0x60806040526000805534801561001457600080fd5b50611757806100246000396000f3fe608060405234801561001057600080fd5b50600436106100415760003560e01c806334f8474d14610046578063b7eb594a14610062578063f3d8381b14610080575b600080fd5b610060600480360381019061005b9190610d36565b6100b0565b005b61006a61021b565b604051610077919061103c565b60405180910390f35b61009a6004803603810190610095919061105e565b610531565b6040516100a791906110fe565b60405180910390f35b6100bb8360fa610a80565b6100c882620186a0610a80565b6100d3816064610a80565b60016040518060a001604052803373ffffffffffffffffffffffffffffffffffffffff168152602001600054815260200142815260200186815260200185815250908060018154018082558091505060019003906000526020600020906005020160009091909190915060008201518160000160006101000a81548173ffffffffffffffffffffffffffffffffffffffff021916908373ffffffffffffffffffffffffffffffffffffffff16021790555060208201518160010155604082015181600201556060820151816003015560808201518160040190816101b7919061132c565b50505080600260008054815260200190815260200160002090816101db919061132c565b5081600360008054815260200190815260200160002090816101fd919061132c565b506000808154809291906102109061142d565b919050555050505050565b6060600060018054905067ffffffffffffffff81111561023e5761023d610c0b565b5b60405190808252806020026020018201604052801561027757816020015b610264610b21565b81526020019060019003908161025c5790505b5090506000805b600180549050811015610525573373ffffffffffffffffffffffffffffffffffffffff16600182815481106102b6576102b5611475565b5b906000526020600020906005020160000160009054906101000a900473ffffffffffffffffffffffffffffffffffffffff1673ffffffffffffffffffffffffffffffffffffffff16036105125760405180604001604052806001838154811061032257610321611475565b5b90600052602060002090600502016040518060a00160405290816000820160009054906101000a900473ffffffffffffffffffffffffffffffffffffffff1673ffffffffffffffffffffffffffffffffffffffff1673ffffffffffffffffffffffffffffffffffffffff1681526020016001820154815260200160028201548152602001600382015481526020016004820180546103bf9061114f565b80601f01602080910402602001604051908101604052809291908181526020018280546103eb9061114f565b80156104385780601f1061040d57610100808354040283529160200191610438565b820191906000526020600020905b81548152906001019060200180831161041b57829003601f168201915b50505050508152505081526020016002600084815260200190815260200160002080546104649061114f565b80601f01602080910402602001604051908101604052809291908181526020018280546104909061114f565b80156104dd5780601f106104b2576101008083540402835291602001916104dd565b820191906000526020600020905b8154815290600101906020018083116104c057829003601f168201915b50505050508152508383815181106104f8576104f7611475565b5b6020026020010181905250818061050e9061142d565b9250505b808061051d9061142d565b91505061027e565b50808252819250505090565b610539610b41565b426001848154811061054e5761054d611475565b5b90600052602060002090600502016003015411158015610594575060006001848154811061057f5761057e611475565b5b90600052602060002090600502016003015414155b156105d4576040517f08c379a00000000000000000000000000000000000000000000000000000000081526004016105cb90611501565b60405180910390fd5b3373ffffffffffffffffffffffffffffffffffffffff16600184815481106105ff576105fe611475565b5b906000526020600020906005020160000160009054906101000a900473ffffffffffffffffffffffffffffffffffffffff1673ffffffffffffffffffffffffffffffffffffffff16036108355760405180604001604052806001858154811061066b5761066a611475565b5b90600052602060002090600502016040518060a00160405290816000820160009054906101000a900473ffffffffffffffffffffffffffffffffffffffff1673ffffffffffffffffffffffffffffffffffffffff1673ffffffffffffffffffffffffffffffffffffffff1681526020016001820154815260200160028201548152602001600382015481526020016004820180546107089061114f565b80601f01602080910402602001604051908101604052809291908181526020018280546107349061114f565b80156107815780601f1061075657610100808354040283529160200191610781565b820191906000526020600020905b81548152906001019060200180831161076457829003601f168201915b50505050508152505081526020016003600086815260200190815260200160002080546107ad9061114f565b80601f01602080910402602001604051908101604052809291908181526020018280546107d99061114f565b80156108265780601f106107fb57610100808354040283529160200191610826565b820191906000526020600020905b81548152906001019060200180831161080957829003601f168201915b50505050508152509050610a7a565b6108516002600085815260200190815260200160002083610ac8565b15610a3f5760405180604001604052806001858154811061087557610874611475565b5b90600052602060002090600502016040518060a00160405290816000820160009054906101000a900473ffffffffffffffffffffffffffffffffffffffff1673ffffffffffffffffffffffffffffffffffffffff1673ffffffffffffffffffffffffffffffffffffffff1681526020016001820154815260200160028201548152602001600382015481526020016004820180546109129061114f565b80601f016020809104026020016040519081016040528092919081815260200182805461093e9061114f565b801561098b5780601f106109605761010080835404028352916020019161098b565b820191906000526020600020905b81548152906001019060200180831161096e57829003601f168201915b50505050508152505081526020016003600086815260200190815260200160002080546109b79061114f565b80601f01602080910402602001604051908101604052809291908181526020018280546109e39061114f565b8015610a305780601f10610a0557610100808354040283529160200191610a30565b820191906000526020600020905b815481529060010190602001808311610a1357829003601f168201915b50505050508152509050610a7a565b6040517f08c379a0000000000000000000000000000000000000000000000000000000008152600401610a719061156d565b60405180910390fd5b92915050565b8082511115610ac4576040517f08c379a0000000000000000000000000000000000000000000000000000000008152600401610abb906115ff565b60405180910390fd5b5050565b600081604051602001610adb919061165b565b6040516020818303038152906040528051906020012083604051602001610b02919061170a565b6040516020818303038152906040528051906020012014905092915050565b6040518060400160405280610b34610b61565b8152602001606081525090565b6040518060400160405280610b54610b61565b8152602001606081525090565b6040518060a00160405280600073ffffffffffffffffffffffffffffffffffffffff168152602001600081526020016000815260200160008152602001606081525090565b6000604051905090565b600080fd5b600080fd5b6000819050919050565b610bcd81610bba565b8114610bd857600080fd5b50565b600081359050610bea81610bc4565b92915050565b600080fd5b600080fd5b6000601f19601f8301169050919050565b7f4e487b7100000000000000000000000000000000000000000000000000000000600052604160045260246000fd5b610c4382610bfa565b810181811067ffffffffffffffff82111715610c6257610c61610c0b565b5b80604052505050565b6000610c75610ba6565b9050610c818282610c3a565b919050565b600067ffffffffffffffff821115610ca157610ca0610c0b565b5b610caa82610bfa565b9050602081019050919050565b82818337600083830152505050565b6000610cd9610cd484610c86565b610c6b565b905082815260208101848484011115610cf557610cf4610bf5565b5b610d00848285610cb7565b509392505050565b600082601f830112610d1d57610d1c610bf0565b5b8135610d2d848260208601610cc6565b91505092915050565b60008060008060808587031215610d5057610d4f610bb0565b5b6000610d5e87828801610bdb565b945050602085013567ffffffffffffffff811115610d7f57610d7e610bb5565b5b610d8b87828801610d08565b935050604085013567ffffffffffffffff811115610dac57610dab610bb5565b5b610db887828801610d08565b925050606085013567ffffffffffffffff811115610dd957610dd8610bb5565b5b610de587828801610d08565b91505092959194509250565b600081519050919050565b600082825260208201905092915050565b6000819050602082019050919050565b600073ffffffffffffffffffffffffffffffffffffffff82169050919050565b6000610e4882610e1d565b9050919050565b610e5881610e3d565b82525050565b610e6781610bba565b82525050565b600081519050919050565b600082825260208201905092915050565b60005b83811015610ea7578082015181840152602081019050610e8c565b60008484015250505050565b6000610ebe82610e6d565b610ec88185610e78565b9350610ed8818560208601610e89565b610ee181610bfa565b840191505092915050565b600060a083016000830151610f046000860182610e4f565b506020830151610f176020860182610e5e565b506040830151610f2a6040860182610e5e565b506060830151610f3d6060860182610e5e565b5060808301518482036080860152610f558282610eb3565b9150508091505092915050565b60006040830160008301518482036000860152610f7f8282610eec565b91505060208301518482036020860152610f998282610eb3565b9150508091505092915050565b6000610fb28383610f62565b905092915050565b6000602082019050919050565b6000610fd282610df1565b610fdc8185610dfc565b935083602082028501610fee85610e0d565b8060005b8581101561102a578484038952815161100b8582610fa6565b945061101683610fba565b925060208a01995050600181019050610ff2565b50829750879550505050505092915050565b600060208201905081810360008301526110568184610fc7565b905092915050565b6000806040838503121561107557611074610bb0565b5b600061108385828601610bdb565b925050602083013567ffffffffffffffff8111156110a4576110a3610bb5565b5b6110b085828601610d08565b9150509250929050565b600060408301600083015184820360008601526110d78282610eec565b915050602083015184820360208601526110f18282610eb3565b9150508091505092915050565b6000602082019050818103600083015261111881846110ba565b905092915050565b7f4e487b7100000000000000000000000000000000000000000000000000000000600052602260045260246000fd5b6000600282049050600182168061116757607f821691505b60208210810361117a57611179611120565b5b50919050565b60008190508160005260206000209050919050565b60006020601f8301049050919050565b600082821b905092915050565b6000600883026111e27fffffffffffffffffffffffffffffffffffffffffffffffffffffffffffffffff826111a5565b6111ec86836111a5565b95508019841693508086168417925050509392505050565b6000819050919050565b600061122961122461121f84610bba565b611204565b610bba565b9050919050565b6000819050919050565b6112438361120e565b61125761124f82611230565b8484546111b2565b825550505050565b600090565b61126c61125f565b61127781848461123a565b505050565b5b8181101561129b57611290600082611264565b60018101905061127d565b5050565b601f8211156112e0576112b181611180565b6112ba84611195565b810160208510156112c9578190505b6112dd6112d585611195565b83018261127c565b50505b505050565b600082821c905092915050565b6000611303600019846008026112e5565b1980831691505092915050565b600061131c83836112f2565b9150826002028217905092915050565b61133582610e6d565b67ffffffffffffffff81111561134e5761134d610c0b565b5b611358825461114f565b61136382828561129f565b600060209050601f8311600181146113965760008415611384578287015190505b61138e8582611310565b8655506113f6565b601f1984166113a486611180565b60005b828110156113cc578489015182556001820191506020850194506020810190506113a7565b868310156113e957848901516113e5601f8916826112f2565b8355505b6001600288020188555050505b505050505050565b7f4e487b7100000000000000000000000000000000000000000000000000000000600052601160045260246000fd5b600061143882610bba565b91507fffffffffffffffffffffffffffffffffffffffffffffffffffffffffffffffff820361146a576114696113fe565b5b600182019050919050565b7f4e487b7100000000000000000000000000000000000000000000000000000000600052603260045260246000fd5b600082825260208201905092915050565b7f45787069726174696f6e206461746520686173207061737365642e0000000000600082015250565b60006114eb601b836114a4565b91506114f6826114b5565b602082019050919050565b6000602082019050818103600083015261151a816114de565b9050919050565b7f596f7520706173732077726f6e672070617373776f7264000000000000000000600082015250565b60006115576017836114a4565b915061156282611521565b602082019050919050565b600060208201905081810360008301526115868161154a565b9050919050565b7f537472696e67206c656e677468206578636565647320746865206d6178696d7560008201527f6d20616c6c6f7765640000000000000000000000000000000000000000000000602082015250565b60006115e96029836114a4565b91506115f48261158d565b604082019050919050565b60006020820190508181036000830152611618816115dc565b9050919050565b600081905092915050565b600061163582610e6d565b61163f818561161f565b935061164f818560208601610e89565b80840191505092915050565b6000611667828461162a565b915081905092915050565b60008190508160005260206000209050919050565b600081546116948161114f565b61169e818661161f565b945060018216600081146116b957600181146116ce57611701565b60ff1983168652811515820286019350611701565b6116d785611672565b60005b838110156116f9578154818901526001820191506020810190506116da565b838801955050505b50505092915050565b60006117168284611687565b91508190509291505056fea2646970667358221220ff5b9fdda809db3da9a0e3efc225c856970507944459841f64ab20c8b6b1782f64736f6c63430008120033",
  "linkReferences": {},
  "deployedLinkReferences": {}
}